{"abi":[{"type":"constructor","inputs":[{"name":"_judges","type":"address[]","internalType":"address[]"}],"stateMutability":"nonpayable"},{"type":"function","name":"createEscrow","inputs":[{"name":"_orderId","type":"bytes32","internalType":"bytes32"},{"name":"_seller","type":"address","internalType":"address"},{"name":"_deadlinePeriod","type":"uint256","internalType":"uint256"},{"name":"_proposalExpiry","type":"uint256","internalType":"uint256"},{"name":"_proposalSignature","type":"bytes","internalType":"bytes"}],"outputs":[],"stateMutability":"payable"},{"type":"function","name":"disputeResolutionPeriod","inputs":[],"outputs":[{"name":"","type":"uint256","internalType":"uint256"}],"stateMutability":"view"},{"type":"function","name":"disputeResult","inputs":[{"name":"_orderId","type":"bytes32","internalType":"bytes32"}],"outputs":[{"name":"buyerShare","type":"uint256","internalType":"uint256"}],"stateMutability":"view"},{"type":"function","name":"disputes","inputs":[{"name":"","type":"bytes32","internalType":"bytes32"}],"outputs":[{"name":"buyerShare","type":"uint256","internalType":"uint256"},{"name":"votes","type":"uint256","internalType":"uint256"},{"name":"timestamp","type":"uint256","internalType":"uint256"}],"stateMutability":"view"},{"type":"function","name":"escrows","inputs":[{"name":"","type":"bytes32","internalType":"bytes32"}],"outputs":[{"name":"buyer","type":"address","internalType":"address"},{"name":"seller","type":"address","internalType":"address"},{"name":"amount","type":"uint256","internalType":"uint256"},{"name":"deadline","type":"uint256","internalType":"uint256"},{"name":"status","type":"uint8","internalType":"enum GigaCrew.EscrowStatus"}],"stateMutability":"view"},{"type":"function","name":"judgeVotes","inputs":[{"name":"","type":"bytes32","internalType":"bytes32"},{"name":"","type":"uint256","internalType":"uint256"}],"outputs":[{"name":"","type":"bool","internalType":"bool"}],"stateMutability":"view"},{"type":"function","name":"judges","inputs":[{"name":"","type":"uint256","internalType":"uint256"}],"outputs":[{"name":"","type":"address","internalType":"address"}],"stateMutability":"view"},{"type":"function","name":"lastServiceId","inputs":[],"outputs":[{"name":"","type":"uint256","internalType":"uint256"}],"stateMutability":"view"},{"type":"function","name":"lockPeriod","inputs":[],"outputs":[{"name":"","type":"uint256","internalType":"uint256"}],"stateMutability":"view"},{"type":"function","name":"pauseService","inputs":[{"name":"_serviceId","type":"uint256","internalType":"uint256"}],"outputs":[],"stateMutability":"nonpayable"},{"type":"function","name":"pows","inputs":[{"name":"","type":"bytes32","internalType":"bytes32"}],"outputs":[{"name":"work","type":"string","internalType":"string"},{"name":"timestamp","type":"uint256","internalType":"uint256"}],"stateMutability":"view"},{"type":"function","name":"registerService","inputs":[{"name":"_title","type":"string","internalType":"string"},{"name":"_description","type":"string","internalType":"string"},{"name":"_communicationChannel","type":"string","internalType":"string"}],"outputs":[{"name":"service_id","type":"uint256","internalType":"uint256"}],"stateMutability":"nonpayable"},{"type":"function","name":"resumeService","inputs":[{"name":"_serviceId","type":"uint256","internalType":"uint256"}],"outputs":[],"stateMutability":"nonpayable"},{"type":"function","name":"services","inputs":[{"name":"","type":"uint256","internalType":"uint256"}],"outputs":[{"name":"paused","type":"bool","internalType":"bool"},{"name":"provider","type":"address","internalType":"address"},{"name":"title","type":"string","internalType":"string"},{"name":"description","type":"string","internalType":"string"},{"name":"communicationChannel","type":"string","internalType":"string"}],"stateMutability":"view"},{"type":"function","name":"submitDispute","inputs":[{"name":"_orderId","type":"bytes32","internalType":"bytes32"}],"outputs":[],"stateMutability":"nonpayable"},{"type":"function","name":"submitPoW","inputs":[{"name":"_orderId","type":"bytes32","internalType":"bytes32"},{"name":"_work","type":"string","internalType":"string"}],"outputs":[],"stateMutability":"nonpayable"},{"type":"function","name":"voteOnDispute","inputs":[{"name":"_orderId","type":"bytes32","internalType":"bytes32"},{"name":"_judgeId","type":"uint256","internalType":"uint256"},{"name":"_buyerShare","type":"uint256","internalType":"uint256"}],"outputs":[],"stateMutability":"nonpayable"},{"type":"function","name":"withdrawFunds","inputs":[{"name":"_orderId","type":"bytes32","internalType":"bytes32"},{"name":"_signature","type":"bytes","internalType":"bytes"}],"outputs":[],"stateMutability":"nonpayable"},{"type":"event","name":"DisputeVote","inputs":[{"name":"orderId","type":"bytes32","indexed":true,"internalType":"bytes32"},{"name":"judgeId","type":"uint256","indexed":true,"internalType":"uint256"},{"name":"buyerShare","type":"uint256","indexed":false,"internalType":"uint256"}],"anonymous":false},{"type":"event","name":"EscrowCreated","inputs":[{"name":"orderId","type":"bytes32","indexed":true,"internalType":"bytes32"},{"name":"buyer","type":"address","indexed":true,"internalType":"address"},{"name":"seller","type":"address","indexed":true,"internalType":"address"},{"name":"amount","type":"uint256","indexed":false,"internalType":"uint256"},{"name":"deadline","type":"uint256","indexed":false,"internalType":"uint256"}],"anonymous":false},{"type":"event","name":"EscrowDisputed","inputs":[{"name":"orderId","type":"bytes32","indexed":true,"internalType":"bytes32"},{"name":"disputeResolutionPeriod","type":"uint256","indexed":false,"internalType":"uint256"}],"anonymous":false},{"type":"event","name":"FundsWithdrawn","inputs":[{"name":"orderId","type":"bytes32","indexed":true,"internalType":"bytes32"},{"name":"to","type":"address","indexed":true,"internalType":"address"},{"name":"amount","type":"uint256","indexed":false,"internalType":"uint256"}],"anonymous":false},{"type":"event","name":"PoWSubmitted","inputs":[{"name":"orderId","type":"bytes32","indexed":true,"internalType":"bytes32"},{"name":"buyer","type":"address","indexed":true,"internalType":"address"},{"name":"seller","type":"address","indexed":true,"internalType":"address"},{"name":"work","type":"string","indexed":false,"internalType":"string"},{"name":"lockPeriod","type":"uint256","indexed":false,"internalType":"uint256"}],"anonymous":false},{"type":"event","name":"ServicePaused","inputs":[{"name":"serviceId","type":"uint256","indexed":true,"internalType":"uint256"}],"anonymous":false},{"type":"event","name":"ServiceRegistered","inputs":[{"name":"serviceId","type":"uint256","indexed":true,"internalType":"uint256"},{"name":"provider","type":"address","indexed":true,"internalType":"address"}],"anonymous":false},{"type":"event","name":"ServiceResumed","inputs":[{"name":"serviceId","type":"uint256","indexed":true,"internalType":"uint256"}],"anonymous":false},{"type":"error","name":"AlreadyVoted","inputs":[]},{"type":"error","name":"DeadlineAlreadyPassed","inputs":[{"name":"deadline","type":"uint256","internalType":"uint256"}]},{"type":"error","name":"DeadlineNotPassed","inputs":[{"name":"deadline","type":"uint256","internalType":"uint256"}]},{"type":"error","name":"DisputeResolutionPeriodNotPassed","inputs":[{"name":"deadline","type":"uint256","internalType":"uint256"}]},{"type":"error","name":"DisputeResolutionPeriodPassed","inputs":[{"name":"deadline","type":"uint256","internalType":"uint256"}]},{"type":"error","name":"ECDSAInvalidSignature","inputs":[]},{"type":"error","name":"ECDSAInvalidSignatureLength","inputs":[{"name":"length","type":"uint256","internalType":"uint256"}]},{"type":"error","name":"ECDSAInvalidSignatureS","inputs":[{"name":"s","type":"bytes32","internalType":"bytes32"}]},{"type":"error","name":"EmptyWork","inputs":[]},{"type":"error","name":"EscrowAlreadyExists","inputs":[]},{"type":"error","name":"EscrowAlreadyWithdrawn","inputs":[]},{"type":"error","name":"EscrowNotPending","inputs":[{"name":"status","type":"uint8","internalType":"enum GigaCrew.EscrowStatus"}]},{"type":"error","name":"EscrowWithoutEnoughFunding","inputs":[]},{"type":"error","name":"InvalidBuyerShare","inputs":[]},{"type":"error","name":"InvalidOrderId","inputs":[]},{"type":"error","name":"InvalidServiceId","inputs":[]},{"type":"error","name":"InvalidSignature","inputs":[]},{"type":"error","name":"LockPeriodNotPassed","inputs":[{"name":"lockDeadline","type":"uint256","internalType":"uint256"}]},{"type":"error","name":"MustBeBuyer","inputs":[]},{"type":"error","name":"MustBeJudge","inputs":[]},{"type":"error","name":"MustBeSeller","inputs":[]},{"type":"error","name":"NoDispute","inputs":[]},{"type":"error","name":"PoWAlreadySubmitted","inputs":[{"name":"submissionTimestamp","type":"uint256","internalType":"uint256"}]},{"type":"error","name":"PoWNotSubmitted","inputs":[]},{"type":"error","name":"ProposalExpired","inputs":[]}],"bytecode":{"object":"0x6080604052603c600055603c60015534801561001a57600080fd5b50604051612119380380612119833981016040819052610039916100ff565b805161004c906002906020840190610053565b50506101ce565b8280548282559060005260206000209081019282156100a8579160200282015b828111156100a857825182546001600160a01b0319166001600160a01b03909116178255602090920191600190910190610073565b506100b49291506100b8565b5090565b5b808211156100b457600081556001016100b9565b634e487b7160e01b600052604160045260246000fd5b80516001600160a01b03811681146100fa57600080fd5b919050565b60006020828403121561011157600080fd5b81516001600160401b0381111561012757600080fd5b8201601f8101841361013857600080fd5b80516001600160401b03811115610151576101516100cd565b604051600582901b90603f8201601f191681016001600160401b038111828210171561017f5761017f6100cd565b60405291825260208184018101929081018784111561019d57600080fd5b6020850194505b838510156101c3576101b5856100e3565b8152602094850194016101a4565b509695505050505050565b611f3c806101dd6000396000f3fe6080604052600436106101095760003560e01c80639d5783e811610095578063c22c4f4311610064578063c22c4f4314610375578063df30796e146103a6578063ecb7dbe9146103c6578063ed422358146103dc578063ef57d884146103fc57600080fd5b80639d5783e8146102cf578063b06b0368146102fd578063b1f6eb6f14610335578063b24945c21461035557600080fd5b80634758406a116100dc5780634758406a1461021b5780634911bfe51461023b5780636613ff341461024e578063833a10311461026e5780638db9cb87146102b957600080fd5b806311be19971461010e5780632d83549c1461016a57806331327ee8146101d55780633fd8b02f146101f7575b600080fd5b34801561011a57600080fd5b5061014a610129366004611951565b60066020526000908152604090208054600182015460029092015490919083565b604080519384526020840192909252908201526060015b60405180910390f35b34801561017657600080fd5b506101c4610185366004611951565b6004602081905260009182526040909120805460018201546002830154600384015493909401546001600160a01b039283169492909116929060ff1685565b6040516101619594939291906119a2565b3480156101e157600080fd5b506101f56101f0366004611a8b565b61041c565b005b34801561020357600080fd5b5061020d60005481565b604051908152602001610161565b34801561022757600080fd5b506101f5610236366004611a8b565b6105bf565b6101f5610249366004611ad2565b610c53565b34801561025a57600080fd5b506101f5610269366004611951565b610e6d565b34801561027a57600080fd5b506102a9610289366004611b4b565b600760209081526000928352604080842090915290825290205460ff1681565b6040519015158152602001610161565b3480156102c557600080fd5b5061020d60085481565b3480156102db57600080fd5b506102ef6102ea366004611951565b610ee9565b604051610161929190611bb3565b34801561030957600080fd5b5061031d610318366004611951565b610f8d565b6040516001600160a01b039091168152602001610161565b34801561034157600080fd5b5061020d610350366004611951565b610fb7565b34801561036157600080fd5b506101f5610370366004611bd5565b61105c565b34801561038157600080fd5b50610395610390366004611951565b61122a565b604051610161959493929190611c01565b3480156103b257600080fd5b506101f56103c1366004611951565b6113ff565b3480156103d257600080fd5b5061020d60015481565b3480156103e857600080fd5b506101f56103f7366004611951565b61156a565b34801561040857600080fd5b5061020d610417366004611c5f565b6115e9565b81610426816116e7565b6000818152600460205260409020600101546001600160a01b031633146104605760405163fa642e6360e01b815260040160405180910390fd5b600083815260056020526040902060010154156104ac576000838152600560205260409081902060010154905163dbb03dd160e01b815260048101919091526024015b60405180910390fd5b6000838152600460205260409020600301544211156104f6576000838152600460208190526040918290206003015491516311a4f1f760e21b81526104a392910190815260200190565b815160000361051857604051631ea15b4b60e21b815260040160405180910390fd5b6040805180820182528381524260208083019190915260008681526005909152919091208151819061054a9082611d75565b50602091820151600190910155600084815260049091526040812054905433916001600160a01b03169085907fbedefd4a001fa8e49eeb9a2e1cd69a92fc589731fa99027cc6c4c1a360f546fa9086906105a49042611e4a565b6040516105b2929190611bb3565b60405180910390a4505050565b816105c9816116e7565b6000838152600460208190526040909120808201546001820154825460029093015460ff909216936001600160a01b039182169390911691908460048111156106145761061461196a565b03610632576040516372d3fbd360e01b815260040160405180910390fd5b60028460048111156106465761064661196a565b03610708576000606461065889610fb7565b6106629084611e5d565b61066c9190611e74565b6106769083611e96565b60008981526004602081905260408083208201805460ff1916909217909155519192506001600160a01b038616916108fc84150291849190818181858888f193505050501580156106cb573d6000803e3d6000fd5b50836001600160a01b031688600080516020611ee7833981519152836040516106f691815260200190565b60405180910390a35050505050505050565b600384600481111561071c5761071c61196a565b036107c2576000606461072e89610fb7565b6107389084611e5d565b6107429190611e74565b60008981526004602081905260408083208201805460ff1916909217909155519192506001600160a01b038516916108fc84150291849190818181858888f19350505050158015610797573d6000803e3d6000fd5b50826001600160a01b031688600080516020611ee7833981519152836040516106f691815260200190565b8551156108035760405162461bcd60e51b815260206004820152600f60248201526e139bdd081a5b5c1b195b595b9d1959608a1b60448201526064016104a3565b60018460048111156108175761081761196a565b03610a8557600061082788610fb7565b9050806000036108ad5760008881526004602081905260408083208201805460ff1916909217909155516001600160a01b038616916108fc851502918591818181858888f19350505050158015610882573d6000803e3d6000fd5b50836001600160a01b031688600080516020611ee7833981519152846040516106f691815260200190565b806064036109315760008881526004602081905260408083208201805460ff1916909217909155516001600160a01b038516916108fc851502918591818181858888f19350505050158015610906573d6000803e3d6000fd5b50826001600160a01b031688600080516020611ee7833981519152846040516106f691815260200190565b606461093d8284611e5d565b6109479190611e74565b905060006109558284611e96565b90506001600160a01b03841633036109f6576000898152600460208190526040808320909101805460ff19166002179055516001600160a01b038616916108fc851502918591818181858888f193505050501580156109b8573d6000803e3d6000fd5b50836001600160a01b031689600080516020611ee7833981519152846040516109e391815260200190565b60405180910390a3505050505050505050565b6001600160a01b0385163303610a82576000898152600460208190526040808320909101805460ff19166003179055516001600160a01b038716916108fc841502918491818181858888f19350505050158015610a57573d6000803e3d6000fd5b50846001600160a01b031689600080516020611ee7833981519152836040516109e391815260200190565b50505b60008781526005602052604090206001015415610b8957600080548882526005602052604090912060010154610abb9190611e4a565b4211610afc57600080548882526005602052604090912060010154610ae09190611e4a565b6040516303e7ea8d60e51b81526004016104a391815260200190565b60008781526004602081905260408083208201805460ff1916909217909155516001600160a01b038516916108fc841502918491818181858888f19350505050158015610b4d573d6000803e3d6000fd5b50826001600160a01b031687600080516020611ee783398151915283604051610b7891815260200190565b60405180910390a350505050505050565b6000878152600460205260409020600301544211610bd25760008781526004602081905260409182902060030154915163336d9e1760e01b81526104a392910190815260200190565b60008781526004602081905260408083208201805460ff1916909217909155516001600160a01b038416916108fc841502918491818181858888f19350505050158015610c23573d6000803e3d6000fd5b50816001600160a01b031687600080516020611ee783398151915283604051610b7891815260200190565b505050565b60008581526004602052604090206003015415610c835760405163ed77877960e01b815260040160405180910390fd5b81421115610ca4576040516328a7237960e01b815260040160405180910390fd5b6040805172023b4b3b0a1b932bb90283937b837b9b0b61d1606d1b60208201529081018690526060810183905234608082015260a0810184905260009060c0016040516020818303038152906040528051906020012090506000610d08828461171b565b9050856001600160a01b0316816001600160a01b031614610d3c57604051638baa579f60e01b815260040160405180910390fd5b6000610d488642611e4a565b90506040518060a00160405280336001600160a01b03168152602001886001600160a01b0316815260200134815260200182815260200160006004811115610d9257610d9261196a565b9052600089815260046020818152604092839020845181546001600160a01b039182166001600160a01b03199182161783559286015160018084018054929093169190941617905592840151600284015560608401516003840155608084015183830180549193909260ff1990921691908490811115610e1457610e1461196a565b02179055505060408051348152602081018490526001600160a01b038a16925033918b917f8233ac661360194ba2d16fa02d354d092808769225032c46dc5787f33af21cbe910160405180910390a45050505050505050565b60008181526003602052604090205461010090046001600160a01b03163314610ea95760405163fa642e6360e01b815260040160405180910390fd5b600081815260036020526040808220805460ff191690555182917f9857dfdcdf9b2394a8313dc1009272759f78bed5734340044e63c373145b6b0a91a250565b600560205260009081526040902080548190610f0490611cf3565b80601f0160208091040260200160405190810160405280929190818152602001828054610f3090611cf3565b8015610f7d5780601f10610f5257610100808354040283529160200191610f7d565b820191906000526020600020905b815481529060010190602001808311610f6057829003601f168201915b5050505050908060010154905082565b60028181548110610f9d57600080fd5b6000918252602090912001546001600160a01b0316905081565b600081610fc381611747565b600154600084815260066020526040902060020154610fe29190611e4a565b4211611023576001546000848152600660205260409020600201546110079190611e4a565b6040516332c6b2c360e01b81526004016104a391815260200190565b60008381526006602052604081206001015490036110445760009150611056565b60008381526006602052604090205491505b50919050565b828261106782611747565b6002818154811061107a5761107a611ea9565b6000918252602090912001546001600160a01b031633146110ae5760405163a1f19a5b60e01b815260040160405180910390fd5b600085815260076020908152604080832087845290915290205460ff16156110e957604051637c9a1cf960e01b815260040160405180910390fd5b600154600086815260066020526040902060020154429161110991611e4a565b101561114a5760015460008681526006602052604090206002015461112e9190611e4a565b604051630ed9be0960e01b81526004016104a391815260200190565b606483111561116c57604051636c92019160e11b815260040160405180910390fd5b60008581526007602090815260408083208784528252808320805460ff19166001908117909155888452600690925290912080820154905490916111b1908390611e4a565b856111bc8484611e5d565b6111c69190611e4a565b6111d09190611e74565b600088815260066020526040812091825560019091018054916111f283611ebf565b919050555085877fa2d70005865a036ae7f5ead532d6e40553951ef1ae66e00db5317010000db0a687604051610b7891815260200190565b6003602052600090815260409020805460018201805460ff8316936101009093046001600160a01b031692919061126090611cf3565b80601f016020809104026020016040519081016040528092919081815260200182805461128c90611cf3565b80156112d95780601f106112ae576101008083540402835291602001916112d9565b820191906000526020600020905b8154815290600101906020018083116112bc57829003601f168201915b5050505050908060020180546112ee90611cf3565b80601f016020809104026020016040519081016040528092919081815260200182805461131a90611cf3565b80156113675780601f1061133c57610100808354040283529160200191611367565b820191906000526020600020905b81548152906001019060200180831161134a57829003601f168201915b50505050509080600301805461137c90611cf3565b80601f01602080910402602001604051908101604052809291908181526020018280546113a890611cf3565b80156113f55780601f106113ca576101008083540402835291602001916113f5565b820191906000526020600020905b8154815290600101906020018083116113d857829003601f168201915b5050505050905085565b80611409816116e7565b6000818152600460205260409020546001600160a01b0316331461144057604051633192ea7760e01b815260040160405180910390fd5b6000828152600460208190526040822081015460ff16908111156114665761146661196a565b1461149a57600082815260046020819052604091829020810154915163da72081760e01b81526104a39260ff169101611ed8565b60008281526005602052604081206001015490036114cb576040516317c12a4960e31b815260040160405180910390fd5b6000828152600460208181526040808420909201805460ff19166001908117909155825160608101845284815280830185815242828601818152898852600690955294909520905181559351848201559051600290930192909255905483917fdcad9437198a33de136a2cf6a229ed07367ec6f99a6958d0aa2ee9ea08353f399161155591611e4a565b60405190815260200160405180910390a25050565b60008181526003602052604090205461010090046001600160a01b031633146115a65760405163fa642e6360e01b815260040160405180910390fd5b600081815260036020526040808220805460ff191660011790555182917fb62855a8e0d386952ecee37e0aa2de7c75b0de504a3a04b8345c22f0bbd31b1591a250565b6008546040805160a081018252600080825233602080840191825283850189815260608501899052608085018890528684526003909152939091208251815492516001600160a81b0319909316901515610100600160a81b031916176101006001600160a01b0390931692909202919091178155915190919060018201906116719082611d75565b50606082015160028201906116869082611d75565b506080820151600382019061169b9082611d75565b505060405133915082907ffcd335a152e711f7e0e74487e27043f438dc7e73d600889758eb946a0192c3e090600090a3600880549060006116db83611ebf565b91905055509392505050565b600081815260046020526040812060030154900361171857604051635d70603360e01b815260040160405180910390fd5b50565b60008060008061172b8686611778565b92509250925061173b82826117c5565b50909150505b92915050565b60008181526006602052604081206002015490036117185760405163126ea8e960e31b815260040160405180910390fd5b600080600083516041036117b25760208401516040850151606086015160001a6117a488828585611882565b9550955095505050506117be565b50508151600091506002905b9250925092565b60008260038111156117d9576117d961196a565b036117e2575050565b60018260038111156117f6576117f661196a565b036118145760405163f645eedf60e01b815260040160405180910390fd5b60028260038111156118285761182861196a565b036118495760405163fce698f760e01b8152600481018290526024016104a3565b600382600381111561185d5761185d61196a565b0361187e576040516335e2f38360e21b8152600481018290526024016104a3565b5050565b600080807f7fffffffffffffffffffffffffffffff5d576e7357a4501ddfe92f46681b20a08411156118bd5750600091506003905082611947565b604080516000808252602082018084528a905260ff891692820192909252606081018790526080810186905260019060a0016020604051602081039080840390855afa158015611911573d6000803e3d6000fd5b5050604051601f1901519150506001600160a01b03811661193d57506000925060019150829050611947565b9250600091508190505b9450945094915050565b60006020828403121561196357600080fd5b5035919050565b634e487b7160e01b600052602160045260246000fd5b6005811061199e57634e487b7160e01b600052602160045260246000fd5b9052565b6001600160a01b03868116825285166020820152604081018490526060810183905260a081016119d56080830184611980565b9695505050505050565b634e487b7160e01b600052604160045260246000fd5b600082601f830112611a0657600080fd5b81356020830160008067ffffffffffffffff841115611a2757611a276119df565b50604051601f19601f85018116603f0116810181811067ffffffffffffffff82111715611a5657611a566119df565b604052838152905080828401871015611a6e57600080fd5b838360208301376000602085830101528094505050505092915050565b60008060408385031215611a9e57600080fd5b82359150602083013567ffffffffffffffff811115611abc57600080fd5b611ac8858286016119f5565b9150509250929050565b600080600080600060a08688031215611aea57600080fd5b8535945060208601356001600160a01b0381168114611b0857600080fd5b93506040860135925060608601359150608086013567ffffffffffffffff811115611b3257600080fd5b611b3e888289016119f5565b9150509295509295909350565b60008060408385031215611b5e57600080fd5b50508035926020909101359150565b6000815180845260005b81811015611b9357602081850181015186830182015201611b77565b506000602082860101526020601f19601f83011685010191505092915050565b604081526000611bc66040830185611b6d565b90508260208301529392505050565b600080600060608486031215611bea57600080fd5b505081359360208301359350604090920135919050565b85151581526001600160a01b038516602082015260a060408201819052600090611c2d90830186611b6d565b8281036060840152611c3f8186611b6d565b90508281036080840152611c538185611b6d565b98975050505050505050565b600080600060608486031215611c7457600080fd5b833567ffffffffffffffff811115611c8b57600080fd5b611c97868287016119f5565b935050602084013567ffffffffffffffff811115611cb457600080fd5b611cc0868287016119f5565b925050604084013567ffffffffffffffff811115611cdd57600080fd5b611ce9868287016119f5565b9150509250925092565b600181811c90821680611d0757607f821691505b60208210810361105657634e487b7160e01b600052602260045260246000fd5b601f821115610c4e57806000526020600020601f840160051c81016020851015611d4e5750805b601f840160051c820191505b81811015611d6e5760008155600101611d5a565b5050505050565b815167ffffffffffffffff811115611d8f57611d8f6119df565b611da381611d9d8454611cf3565b84611d27565b6020601f821160018114611dd75760008315611dbf5750848201515b600019600385901b1c1916600184901b178455611d6e565b600084815260208120601f198516915b82811015611e075787850151825560209485019460019092019101611de7565b5084821015611e255786840151600019600387901b60f8161c191681555b50505050600190811b01905550565b634e487b7160e01b600052601160045260246000fd5b8082018082111561174157611741611e34565b808202811582820484141761174157611741611e34565b600082611e9157634e487b7160e01b600052601260045260246000fd5b500490565b8181038181111561174157611741611e34565b634e487b7160e01b600052603260045260246000fd5b600060018201611ed157611ed1611e34565b5060010190565b60208101611741828461198056fe13e7ed68a0fe9e4bcafdde5f49381514a9ee7e34ff7d926eadab64c1e0e77f16a2646970667358221220a13610c2278f229e1cf91f1e3fefcd3015c6f817cc9fb642a6568562cc04563764736f6c634300081b0033","linkReferences":{}},"methodIdentifiers":{"createEscrow(bytes32,address,uint256,uint256,bytes)":"4911bfe5","disputeResolutionPeriod()":"ecb7dbe9","disputeResult(bytes32)":"b1f6eb6f","disputes(bytes32)":"11be1997","escrows(bytes32)":"2d83549c","judgeVotes(bytes32,uint256)":"833a1031","judges(uint256)":"b06b0368","lastServiceId()":"8db9cb87","lockPeriod()":"3fd8b02f","pauseService(uint256)":"ed422358","pows(bytes32)":"9d5783e8","registerService(string,string,string)":"ef57d884","resumeService(uint256)":"6613ff34","services(uint256)":"c22c4f43","submitDispute(bytes32)":"df30796e","submitPoW(bytes32,string)":"31327ee8","voteOnDispute(bytes32,uint256,uint256)":"b24945c2","withdrawFunds(bytes32,bytes)":"4758406a"},"id":19}