{"abi":[{"type":"constructor","inputs":[{"name":"_judges","type":"address[]","internalType":"address[]"}],"stateMutability":"nonpayable"},{"type":"function","name":"createEscrow","inputs":[{"name":"_serviceId","type":"uint256","internalType":"uint256"},{"name":"_deadlinePeriod","type":"uint256","internalType":"uint256"},{"name":"_context","type":"string","internalType":"string"}],"outputs":[{"name":"order_id","type":"uint256","internalType":"uint256"}],"stateMutability":"payable"},{"type":"function","name":"disputeResolutionPeriod","inputs":[],"outputs":[{"name":"","type":"uint256","internalType":"uint256"}],"stateMutability":"view"},{"type":"function","name":"disputeResult","inputs":[{"name":"_orderId","type":"uint256","internalType":"uint256"}],"outputs":[{"name":"buyerShare","type":"uint256","internalType":"uint256"}],"stateMutability":"view"},{"type":"function","name":"disputes","inputs":[{"name":"","type":"uint256","internalType":"uint256"}],"outputs":[{"name":"buyerShare","type":"uint256","internalType":"uint256"},{"name":"votes","type":"uint256","internalType":"uint256"},{"name":"timestamp","type":"uint256","internalType":"uint256"}],"stateMutability":"view"},{"type":"function","name":"escrows","inputs":[{"name":"","type":"uint256","internalType":"uint256"}],"outputs":[{"name":"buyer","type":"address","internalType":"address"},{"name":"seller","type":"address","internalType":"address"},{"name":"serviceId","type":"uint256","internalType":"uint256"},{"name":"amount","type":"uint256","internalType":"uint256"},{"name":"deadline","type":"uint256","internalType":"uint256"},{"name":"context","type":"string","internalType":"string"},{"name":"status","type":"uint8","internalType":"enum GigaCrew.EscrowStatus"}],"stateMutability":"view"},{"type":"function","name":"judgeVotes","inputs":[{"name":"","type":"uint256","internalType":"uint256"},{"name":"","type":"uint256","internalType":"uint256"}],"outputs":[{"name":"","type":"bool","internalType":"bool"}],"stateMutability":"view"},{"type":"function","name":"judges","inputs":[{"name":"","type":"uint256","internalType":"uint256"}],"outputs":[{"name":"","type":"address","internalType":"address"}],"stateMutability":"view"},{"type":"function","name":"lastOrderId","inputs":[],"outputs":[{"name":"","type":"uint256","internalType":"uint256"}],"stateMutability":"view"},{"type":"function","name":"lastServiceId","inputs":[],"outputs":[{"name":"","type":"uint256","internalType":"uint256"}],"stateMutability":"view"},{"type":"function","name":"lockPeriod","inputs":[],"outputs":[{"name":"","type":"uint256","internalType":"uint256"}],"stateMutability":"view"},{"type":"function","name":"pauseService","inputs":[{"name":"_serviceId","type":"uint256","internalType":"uint256"}],"outputs":[],"stateMutability":"nonpayable"},{"type":"function","name":"pows","inputs":[{"name":"","type":"uint256","internalType":"uint256"}],"outputs":[{"name":"work","type":"string","internalType":"string"},{"name":"timestamp","type":"uint256","internalType":"uint256"}],"stateMutability":"view"},{"type":"function","name":"registerService","inputs":[{"name":"_title","type":"string","internalType":"string"},{"name":"_description","type":"string","internalType":"string"},{"name":"_communicationChannel","type":"string","internalType":"string"},{"name":"_rate","type":"uint256","internalType":"uint256"}],"outputs":[{"name":"service_id","type":"uint256","internalType":"uint256"}],"stateMutability":"nonpayable"},{"type":"function","name":"resumeService","inputs":[{"name":"_serviceId","type":"uint256","internalType":"uint256"}],"outputs":[],"stateMutability":"nonpayable"},{"type":"function","name":"services","inputs":[{"name":"","type":"uint256","internalType":"uint256"}],"outputs":[{"name":"paused","type":"bool","internalType":"bool"},{"name":"provider","type":"address","internalType":"address"},{"name":"title","type":"string","internalType":"string"},{"name":"description","type":"string","internalType":"string"},{"name":"communicationChannel","type":"string","internalType":"string"},{"name":"rate","type":"uint256","internalType":"uint256"}],"stateMutability":"view"},{"type":"function","name":"submitDispute","inputs":[{"name":"_orderId","type":"uint256","internalType":"uint256"}],"outputs":[],"stateMutability":"nonpayable"},{"type":"function","name":"submitPoW","inputs":[{"name":"_orderId","type":"uint256","internalType":"uint256"},{"name":"_work","type":"string","internalType":"string"}],"outputs":[],"stateMutability":"nonpayable"},{"type":"function","name":"voteOnDispute","inputs":[{"name":"_orderId","type":"uint256","internalType":"uint256"},{"name":"_judgeId","type":"uint256","internalType":"uint256"},{"name":"_buyerShare","type":"uint256","internalType":"uint256"}],"outputs":[],"stateMutability":"nonpayable"},{"type":"function","name":"withdrawFunds","inputs":[{"name":"_orderId","type":"uint256","internalType":"uint256"},{"name":"_signature","type":"bytes","internalType":"bytes"}],"outputs":[],"stateMutability":"nonpayable"},{"type":"event","name":"DisputeVote","inputs":[{"name":"orderId","type":"uint256","indexed":true,"internalType":"uint256"},{"name":"judgeId","type":"uint256","indexed":true,"internalType":"uint256"},{"name":"buyerShare","type":"uint256","indexed":false,"internalType":"uint256"}],"anonymous":false},{"type":"event","name":"EscrowCreated","inputs":[{"name":"orderId","type":"uint256","indexed":false,"internalType":"uint256"},{"name":"serviceId","type":"uint256","indexed":true,"internalType":"uint256"},{"name":"buyer","type":"address","indexed":true,"internalType":"address"},{"name":"seller","type":"address","indexed":true,"internalType":"address"},{"name":"context","type":"string","indexed":false,"internalType":"string"},{"name":"deadline","type":"uint256","indexed":false,"internalType":"uint256"}],"anonymous":false},{"type":"event","name":"EscrowDisputed","inputs":[{"name":"orderId","type":"uint256","indexed":true,"internalType":"uint256"},{"name":"disputeResolutionPeriod","type":"uint256","indexed":false,"internalType":"uint256"}],"anonymous":false},{"type":"event","name":"FundsWithdrawn","inputs":[{"name":"orderId","type":"uint256","indexed":true,"internalType":"uint256"},{"name":"to","type":"address","indexed":true,"internalType":"address"},{"name":"amount","type":"uint256","indexed":false,"internalType":"uint256"}],"anonymous":false},{"type":"event","name":"PoWSubmitted","inputs":[{"name":"orderId","type":"uint256","indexed":true,"internalType":"uint256"},{"name":"buyer","type":"address","indexed":true,"internalType":"address"},{"name":"seller","type":"address","indexed":true,"internalType":"address"},{"name":"work","type":"string","indexed":false,"internalType":"string"},{"name":"lockPeriod","type":"uint256","indexed":false,"internalType":"uint256"}],"anonymous":false},{"type":"event","name":"ServicePaused","inputs":[{"name":"serviceId","type":"uint256","indexed":true,"internalType":"uint256"}],"anonymous":false},{"type":"event","name":"ServiceRegistered","inputs":[{"name":"serviceId","type":"uint256","indexed":true,"internalType":"uint256"},{"name":"provider","type":"address","indexed":true,"internalType":"address"}],"anonymous":false},{"type":"event","name":"ServiceResumed","inputs":[{"name":"serviceId","type":"uint256","indexed":true,"internalType":"uint256"}],"anonymous":false},{"type":"error","name":"AlreadyVoted","inputs":[]},{"type":"error","name":"DeadlineAlreadyPassed","inputs":[{"name":"deadline","type":"uint256","internalType":"uint256"}]},{"type":"error","name":"DeadlineNotPassed","inputs":[{"name":"deadline","type":"uint256","internalType":"uint256"}]},{"type":"error","name":"DisputeResolutionPeriodNotPassed","inputs":[{"name":"deadline","type":"uint256","internalType":"uint256"}]},{"type":"error","name":"DisputeResolutionPeriodPassed","inputs":[{"name":"deadline","type":"uint256","internalType":"uint256"}]},{"type":"error","name":"EmptyWork","inputs":[]},{"type":"error","name":"EscrowAlreadyWithdrawn","inputs":[]},{"type":"error","name":"EscrowNotPending","inputs":[{"name":"status","type":"uint8","internalType":"enum GigaCrew.EscrowStatus"}]},{"type":"error","name":"EscrowWithoutEnoughFunding","inputs":[]},{"type":"error","name":"InvalidBuyerShare","inputs":[]},{"type":"error","name":"InvalidOrderId","inputs":[]},{"type":"error","name":"InvalidServiceId","inputs":[]},{"type":"error","name":"LockPeriodNotPassed","inputs":[{"name":"lockDeadline","type":"uint256","internalType":"uint256"}]},{"type":"error","name":"MustBeBuyer","inputs":[]},{"type":"error","name":"MustBeJudge","inputs":[]},{"type":"error","name":"MustBeSeller","inputs":[]},{"type":"error","name":"NoDispute","inputs":[]},{"type":"error","name":"PoWAlreadySubmitted","inputs":[{"name":"submissionTimestamp","type":"uint256","internalType":"uint256"}]},{"type":"error","name":"PoWNotSubmitted","inputs":[]}],"bytecode":{"object":"0x6080604052603c600055603c6001553480156200001b57600080fd5b5060405162002063380380620020638339810160408190526200003e916200010f565b8051620000539060029060208401906200005b565b5050620001e1565b828054828255906000526020600020908101928215620000b3579160200282015b82811115620000b357825182546001600160a01b0319166001600160a01b039091161782556020909201916001909101906200007c565b50620000c1929150620000c5565b5090565b5b80821115620000c15760008155600101620000c6565b634e487b7160e01b600052604160045260246000fd5b80516001600160a01b03811681146200010a57600080fd5b919050565b600060208083850312156200012357600080fd5b82516001600160401b03808211156200013b57600080fd5b818501915085601f8301126200015057600080fd5b815181811115620001655762000165620000dc565b8060051b604051601f19603f830116810181811085821117156200018d576200018d620000dc565b604052918252848201925083810185019188831115620001ac57600080fd5b938501935b82851015620001d557620001c585620000f2565b84529385019392850192620001b1565b98975050505050505050565b611e7280620001f16000396000f3fe6080604052600436106101145760003560e01c80638db9cb87116100a0578063c3480bfa11610064578063c3480bfa14610374578063d3967a6b14610394578063ecb7dbe9146103b4578063ed422358146103ca578063fdd1f754146103ea57600080fd5b80638db9cb87146102b4578063981e7c39146102ca578063b06b0368146102ea578063b8c4fd8314610322578063c22c4f431461034257600080fd5b806348c77367116100e757806348c77367146101e65780634f129fa314610214578063564a565d146102275780635662ecc71461027e5780636613ff341461029457600080fd5b8063012f52ee14610119578063065d82e6146101555780633fd8b02f14610177578063481b6a341461019b575b600080fd5b34801561012557600080fd5b50610139610134366004611809565b61040a565b60405161014c97969594939291906118a0565b60405180910390f35b34801561016157600080fd5b506101756101703660046119ab565b6104e1565b005b34801561018357600080fd5b5061018d60005481565b60405190815260200161014c565b3480156101a757600080fd5b506101d66101b63660046119f2565b600760209081526000928352604080842090915290825290205460ff1681565b604051901515815260200161014c565b3480156101f257600080fd5b50610206610201366004611809565b610684565b60405161014c929190611a14565b61018d610222366004611a36565b610728565b34801561023357600080fd5b50610263610242366004611809565b60066020526000908152604090208054600182015460029092015490919083565b6040805193845260208401929092529082015260600161014c565b34801561028a57600080fd5b5061018d60095481565b3480156102a057600080fd5b506101756102af366004611809565b61092b565b3480156102c057600080fd5b5061018d60085481565b3480156102d657600080fd5b5061018d6102e5366004611a86565b6109a7565b3480156102f657600080fd5b5061030a610305366004611809565b610ab8565b6040516001600160a01b03909116815260200161014c565b34801561032e57600080fd5b5061017561033d366004611b16565b610ae2565b34801561034e57600080fd5b5061036261035d366004611809565b611179565b60405161014c96959493929190611b67565b34801561038057600080fd5b5061017561038f366004611bcd565b611354565b3480156103a057600080fd5b506101756103af366004611809565b611522565b3480156103c057600080fd5b5061018d60015481565b3480156103d657600080fd5b506101756103e5366004611809565b61168f565b3480156103f657600080fd5b5061018d610405366004611809565b61170e565b60046020819052600091825260409091208054600182015460028301546003840154948401546005850180546001600160a01b03958616979490951695929491929161045590611bf9565b80601f016020809104026020016040519081016040528092919081815260200182805461048190611bf9565b80156104ce5780601f106104a3576101008083540402835291602001916104ce565b820191906000526020600020905b8154815290600101906020018083116104b157829003601f168201915b5050506006909301549192505060ff1687565b816104eb816117b3565b6000818152600460205260409020600101546001600160a01b031633146105255760405163fa642e6360e01b815260040160405180910390fd5b60008381526005602052604090206001015415610571576000838152600560205260409081902060010154905163dbb03dd160e01b815260048101919091526024015b60405180910390fd5b600083815260046020819052604090912001544211156105bb5760008381526004602081905260409182902081015491516311a4f1f760e21b815261056892910190815260200190565b81516000036105dd57604051631ea15b4b60e21b815260040160405180910390fd5b6040805180820182528381524260208083019190915260008681526005909152919091208151819061060f9082611c7b565b50602091820151600190910155600084815260049091526040812054905433916001600160a01b03169085907f230e260af8b6459c4b7eeef52069161bb8e88cc06287121c5d8597f4005891df9086906106699042611d51565b604051610677929190611a14565b60405180910390a4505050565b60056020526000908152604090208054819061069f90611bf9565b80601f01602080910402602001604051908101604052809291908181526020018280546106cb90611bf9565b80156107185780601f106106ed57610100808354040283529160200191610718565b820191906000526020600020905b8154815290600101906020018083116106fb57829003601f168201915b5050505050908060010154905082565b600060085484101580610749575060008481526003602052604090205460ff165b1561076757604051635622fbe760e11b815260040160405180910390fd5b60008481526003602052604090206004015434101561079957604051631cffc73b60e21b815260040160405180910390fd5b60008481526003602052604081205461010090046001600160a01b0316906107c18542611d51565b905060095492506040518060e00160405280336001600160a01b03168152602001836001600160a01b031681526020018781526020013481526020018281526020018581526020016000600481111561081c5761081c611868565b9052600084815260046020818152604092839020845181546001600160a01b03199081166001600160a01b03928316178355928601516001830180549094169116179091559183015160028301556060830151600383015560808301519082015560a082015160058201906108919082611c7b565b5060c082015160068201805460ff191660018360048111156108b5576108b5611868565b0217905550905050816001600160a01b0316336001600160a01b0316877f4916ef7907b23c52dc675748df584e7ba2a7b0ae61ac6e08ddc24bc0ff2751c886888660405161090593929190611d6a565b60405180910390a46009805490600061091d83611d93565b919050555050509392505050565b60008181526003602052604090205461010090046001600160a01b031633146109675760405163fa642e6360e01b815260040160405180910390fd5b600081815260036020526040808220805460ff191690555182917f9857dfdcdf9b2394a8313dc1009272759f78bed5734340044e63c373145b6b0a91a250565b6008546040805160c08101825260008082523360208084019182528385018a8152606085018a90526080850189905260a085018890528684526003909152939091208251815492516001600160a81b0319909316901515610100600160a81b031916176101006001600160a01b039093169290920291909117815591519091906001820190610a369082611c7b565b5060608201516002820190610a4b9082611c7b565b5060808201516003820190610a609082611c7b565b5060a09190910151600490910155604051339082907ffcd335a152e711f7e0e74487e27043f438dc7e73d600889758eb946a0192c3e090600090a360088054906000610aab83611d93565b9190505550949350505050565b60028181548110610ac857600080fd5b6000918252602090912001546001600160a01b0316905081565b81610aec816117b3565b600083815260046020819052604090912060068101546001820154825460039093015460ff909216936001600160a01b03918216939091169190846004811115610b3857610b38611868565b03610b56576040516372d3fbd360e01b815260040160405180910390fd5b6002846004811115610b6a57610b6a611868565b03610c2d5760006064610b7c8961170e565b610b869084611dac565b610b909190611dc3565b610b9a9083611de5565b6000898152600460208190526040808320600601805460ff1916909217909155519192506001600160a01b038616916108fc84150291849190818181858888f19350505050158015610bf0573d6000803e3d6000fd5b50836001600160a01b031688600080516020611e1d83398151915283604051610c1b91815260200190565b60405180910390a35050505050505050565b6003846004811115610c4157610c41611868565b03610ce85760006064610c538961170e565b610c5d9084611dac565b610c679190611dc3565b6000898152600460208190526040808320600601805460ff1916909217909155519192506001600160a01b038516916108fc84150291849190818181858888f19350505050158015610cbd573d6000803e3d6000fd5b50826001600160a01b031688600080516020611e1d83398151915283604051610c1b91815260200190565b855115610d295760405162461bcd60e51b815260206004820152600f60248201526e139bdd081a5b5c1b195b595b9d1959608a1b6044820152606401610568565b6001846004811115610d3d57610d3d611868565b03610fa9576000610d4d8861170e565b905080600003610dd4576000888152600460208190526040808320600601805460ff1916909217909155516001600160a01b038616916108fc851502918591818181858888f19350505050158015610da9573d6000803e3d6000fd5b50836001600160a01b031688600080516020611e1d83398151915284604051610c1b91815260200190565b80606403610e59576000888152600460208190526040808320600601805460ff1916909217909155516001600160a01b038516916108fc851502918591818181858888f19350505050158015610e2e573d6000803e3d6000fd5b50826001600160a01b031688600080516020611e1d83398151915284604051610c1b91815260200190565b6064610e658284611dac565b610e6f9190611dc3565b90506000610e7d8284611de5565b90506001600160a01b0384163303610f1c57600089815260046020526040808220600601805460ff19166002179055516001600160a01b038616916108fc851502918591818181858888f19350505050158015610ede573d6000803e3d6000fd5b50836001600160a01b031689600080516020611e1d83398151915284604051610f0991815260200190565b60405180910390a3505050505050505050565b6001600160a01b0385163303610fa657600089815260046020526040808220600601805460ff19166003179055516001600160a01b038716916108fc841502918491818181858888f19350505050158015610f7b573d6000803e3d6000fd5b50846001600160a01b031689600080516020611e1d83398151915283604051610f0991815260200190565b50505b600087815260056020526040902060010154156110ae57600080548882526005602052604090912060010154610fdf9190611d51565b4211611020576000805488825260056020526040909120600101546110049190611d51565b6040516303e7ea8d60e51b815260040161056891815260200190565b6000878152600460208190526040808320600601805460ff1916909217909155516001600160a01b038516916108fc841502918491818181858888f19350505050158015611072573d6000803e3d6000fd5b50826001600160a01b031687600080516020611e1d8339815191528360405161109d91815260200190565b60405180910390a350505050505050565b6000878152600460208190526040909120015442116110f757600087815260046020819052604091829020810154915163336d9e1760e01b815261056892910190815260200190565b6000878152600460208190526040808320600601805460ff1916909217909155516001600160a01b038416916108fc841502918491818181858888f19350505050158015611149573d6000803e3d6000fd5b50816001600160a01b031687600080516020611e1d8339815191528360405161109d91815260200190565b505050565b6003602052600090815260409020805460018201805460ff8316936101009093046001600160a01b03169291906111af90611bf9565b80601f01602080910402602001604051908101604052809291908181526020018280546111db90611bf9565b80156112285780601f106111fd57610100808354040283529160200191611228565b820191906000526020600020905b81548152906001019060200180831161120b57829003601f168201915b50505050509080600201805461123d90611bf9565b80601f016020809104026020016040519081016040528092919081815260200182805461126990611bf9565b80156112b65780601f1061128b576101008083540402835291602001916112b6565b820191906000526020600020905b81548152906001019060200180831161129957829003601f168201915b5050505050908060030180546112cb90611bf9565b80601f01602080910402602001604051908101604052809291908181526020018280546112f790611bf9565b80156113445780601f1061131957610100808354040283529160200191611344565b820191906000526020600020905b81548152906001019060200180831161132757829003601f168201915b5050505050908060040154905086565b828261135f826117d8565b6002818154811061137257611372611df8565b6000918252602090912001546001600160a01b031633146113a65760405163a1f19a5b60e01b815260040160405180910390fd5b600085815260076020908152604080832087845290915290205460ff16156113e157604051637c9a1cf960e01b815260040160405180910390fd5b600154600086815260066020526040902060020154429161140191611d51565b1015611442576001546000868152600660205260409020600201546114269190611d51565b604051630ed9be0960e01b815260040161056891815260200190565b606483111561146457604051636c92019160e11b815260040160405180910390fd5b60008581526007602090815260408083208784528252808320805460ff19166001908117909155888452600690925290912080820154905490916114a9908390611d51565b856114b48484611dac565b6114be9190611d51565b6114c89190611dc3565b600088815260066020526040812091825560019091018054916114ea83611d93565b919050555085877f312c806a35cfe3d38711aa246e6075bb138d63f58daf0a48ffd2c427099a745a8760405161109d91815260200190565b8061152c816117b3565b6000818152600460205260409020546001600160a01b0316331461156357604051633192ea7760e01b815260040160405180910390fd5b600082815260046020819052604082206006015460ff169081111561158a5761158a611868565b146115bf5760008281526004602081905260409182902060060154915163da72081760e01b81526105689260ff169101611e0e565b60008281526005602052604081206001015490036115f0576040516317c12a4960e31b815260040160405180910390fd5b60008281526004602090815260408083206006908101805460ff191660019081179091558251606081018452858152808501868152428286018181528a895294909652939095209451855591518483015551600290930192909255905483917fbe5ad221473781351cbe4130a4254f5f367e12adf1b369fdee909ad35bdfd3c69161167a91611d51565b60405190815260200160405180910390a25050565b60008181526003602052604090205461010090046001600160a01b031633146116cb5760405163fa642e6360e01b815260040160405180910390fd5b600081815260036020526040808220805460ff191660011790555182917fb62855a8e0d386952ecee37e0aa2de7c75b0de504a3a04b8345c22f0bbd31b1591a250565b60008161171a816117d8565b6001546000848152600660205260409020600201546117399190611d51565b421161177a5760015460008481526006602052604090206002015461175e9190611d51565b6040516332c6b2c360e01b815260040161056891815260200190565b600083815260066020526040812060010154900361179b57600091506117ad565b60008381526006602052604090205491505b50919050565b60095481106117d557604051635d70603360e01b815260040160405180910390fd5b50565b60008181526006602052604081206002015490036117d55760405163126ea8e960e31b815260040160405180910390fd5b60006020828403121561181b57600080fd5b5035919050565b6000815180845260005b818110156118485760208185018101518683018201520161182c565b506000602082860101526020601f19601f83011685010191505092915050565b634e487b7160e01b600052602160045260246000fd5b6005811061189c57634e487b7160e01b600052602160045260246000fd5b9052565b600060018060a01b03808a16835280891660208401525086604083015285606083015284608083015260e060a08301526118dd60e0830185611822565b90506118ec60c083018461187e565b98975050505050505050565b634e487b7160e01b600052604160045260246000fd5b600067ffffffffffffffff80841115611929576119296118f8565b604051601f8501601f19908116603f01168101908282118183101715611951576119516118f8565b8160405280935085815286868601111561196a57600080fd5b858560208301376000602087830101525050509392505050565b600082601f83011261199557600080fd5b6119a48383356020850161190e565b9392505050565b600080604083850312156119be57600080fd5b82359150602083013567ffffffffffffffff8111156119dc57600080fd5b6119e885828601611984565b9150509250929050565b60008060408385031215611a0557600080fd5b50508035926020909101359150565b604081526000611a276040830185611822565b90508260208301529392505050565b600080600060608486031215611a4b57600080fd5b8335925060208401359150604084013567ffffffffffffffff811115611a7057600080fd5b611a7c86828701611984565b9150509250925092565b60008060008060808587031215611a9c57600080fd5b843567ffffffffffffffff80821115611ab457600080fd5b611ac088838901611984565b95506020870135915080821115611ad657600080fd5b611ae288838901611984565b94506040870135915080821115611af857600080fd5b50611b0587828801611984565b949793965093946060013593505050565b60008060408385031215611b2957600080fd5b82359150602083013567ffffffffffffffff811115611b4757600080fd5b8301601f81018513611b5857600080fd5b6119e88582356020840161190e565b86151581526001600160a01b038616602082015260c060408201819052600090611b9390830187611822565b8281036060840152611ba58187611822565b90508281036080840152611bb98186611822565b9150508260a0830152979650505050505050565b600080600060608486031215611be257600080fd5b505081359360208301359350604090920135919050565b600181811c90821680611c0d57607f821691505b6020821081036117ad57634e487b7160e01b600052602260045260246000fd5b601f82111561117457600081815260208120601f850160051c81016020861015611c545750805b601f850160051c820191505b81811015611c7357828155600101611c60565b505050505050565b815167ffffffffffffffff811115611c9557611c956118f8565b611ca981611ca38454611bf9565b84611c2d565b602080601f831160018114611cde5760008415611cc65750858301515b600019600386901b1c1916600185901b178555611c73565b600085815260208120601f198616915b82811015611d0d57888601518255948401946001909101908401611cee565b5085821015611d2b5787850151600019600388901b60f8161c191681555b5050505050600190811b01905550565b634e487b7160e01b600052601160045260246000fd5b80820180821115611d6457611d64611d3b565b92915050565b838152606060208201526000611d836060830185611822565b9050826040830152949350505050565b600060018201611da557611da5611d3b565b5060010190565b8082028115828204841417611d6457611d64611d3b565b600082611de057634e487b7160e01b600052601260045260246000fd5b500490565b81810381811115611d6457611d64611d3b565b634e487b7160e01b600052603260045260246000fd5b60208101611d64828461187e56fef440aec6b52895984d061d622e6edeba6210f7c3e059be920663140c084560d7a264697066735822122095f3ea57933800baa71df12f6116a4ecfaa561607fcb05fa14d55a995126a80664736f6c63430008130033","linkReferences":{}},"methodIdentifiers":{"createEscrow(uint256,uint256,string)":"4f129fa3","disputeResolutionPeriod()":"ecb7dbe9","disputeResult(uint256)":"fdd1f754","disputes(uint256)":"564a565d","escrows(uint256)":"012f52ee","judgeVotes(uint256,uint256)":"481b6a34","judges(uint256)":"b06b0368","lastOrderId()":"5662ecc7","lastServiceId()":"8db9cb87","lockPeriod()":"3fd8b02f","pauseService(uint256)":"ed422358","pows(uint256)":"48c77367","registerService(string,string,string,uint256)":"981e7c39","resumeService(uint256)":"6613ff34","services(uint256)":"c22c4f43","submitDispute(uint256)":"d3967a6b","submitPoW(uint256,string)":"065d82e6","voteOnDispute(uint256,uint256,uint256)":"c3480bfa","withdrawFunds(uint256,bytes)":"b8c4fd83"},"id":20}